:020000040800F2
:1000000000000220091000089D0F00089F0F000843
:10001000A10F0008A30F0008A50F000800000000B2
:10002000000000000000000000000000A70F000812
:10003000A90F000800000000AB0F0008AD0F00087A
:1000400059100008591000085910000859100008EC
:1000500059100008591000085910000859100008DC
:1000600059100008591000085910000859100008CC
:1000700059100008591000085910000859100008BC
:1000800059100008591000085910000859100008AC
:10009000591000085910000859100008591000089C
:1000A000591000085910000859100008591000088C
:1000B000591000085910000859100008591000087C
:1000C000591000085910000859100008591000086C
:1000D000591000085910000859100008591000085C
:1000E000591000085910000859100008591000084C
:1000F000591000085910000859100008591000083C
:10010000591000085910000859100008591000082B
:10011000591000085910000859100008591000081B
:10012000591000085910000859100008591000080B
:1001300059100008000000000000000059100008DD
:1001400059100008591000085910000859100008EB
:1001500059100008591000085910000859100008DB
:1001600059100008591000085910000859100008CB
:10017000591000085910000859100008000000002C
:1001800000000000591000080000000000000000FE
:10019000591000080000000000000000591000087D
:1001A00000000000000000000000000059100008DE
:1001B000591000085910000859100008591000087B
:0401C00059100008CA
:1001D00010B5054C237833B9044B13B10448AFF381
:1001E00000800123237010BD70000020000000007B
:1001F000FC18000808B5034B1BB103490348AFF3D3
:10020000008008BD0000000074000020FC180008F9
:1002100001F0FF01102A2BDB10F0070F08D010F8B7
:10022000013B013A8B422DD010F0070F42B3F6D1BB
:10023000F0B441EA012141EA014122F007047FF0D4
:1002400000070023F0E80256083C85EA010586EA2B
:10025000010685FA47F5A3FA87F586FA47F6A5FA67
:1002600087F68EB9EED1F0BC01F0FF0102F0070273
:1002700032B110F8013B013A83EA010313B1F8D11E
:100280000020704701387047002D06BF35460338FF
:10029000073815F0010F07D1013015F4807F02BF38
:1002A000013015F4C03F0130F0BC0138704700BF89
:1002B00053B94AB9002908BF00281CBF4FF0FF31CD
:1002C0004FF0FF3000F07AB9ADF1080C6DE904CEC3
:1002D00000F006F8DDF804E0DDE9022304B0704721
:1002E0002DE9F0478C460D460446089E002B51D15F
:1002F0008A4217466DD9B2FA82FEBEF1000F0BD0CA
:10030000CEF1200C01FA0EF520FA0CFC02FA0EF7E1
:100310004CEA050C00FA0EF44FEA174A250CBCFB18
:10032000FAF81FFA87F90AFB18CC45EA0C4508FBD6
:1003300009F3AB420AD9ED1908F1FF3280F02381AD
:10034000AB4240F22081A8F102083D44ED1AA4B26C
:10035000B5FBFAF00AFB105544EA054400FB09F925
:10036000A14509D9E41900F1FF3380F00A81A145C4
:1003700040F2078102383C44A4EB090440EA0840FB
:100380000021002E61D024FA0EF400233460736043
:10039000BDE8F0878B4207D9002E54D0002186E8B3
:1003A00021000846BDE8F087B3FA83F1002940F048
:1003B0008E80AB4202D3824200F2FA80841A65EB4F
:1003C00003050120AC46002E3FD086E81010BDE8A2
:1003D000F08712B90127B7FBF2F7B7FA87FEBEF133
:1003E000000F34D1EB1B3A0C1FFA87FC0121B3FB41
:1003F000F2F8250C02FB183345EA03450CFB08F321
:10040000AB4207D9ED1908F1FF3002D2AB4200F23E
:10041000D1808046ED1AA3B2B5FBF2F002FB105575
:1004200043EA05440CFB00FCA44507D9E41900F19C
:10043000FF3302D2A44500F2B8801846A4EB0C04A6
:1004400040EA08409DE731463046BDE8F087CEF1EE
:10045000200405FA0EF307FA0EF720FA04F83A0C16
:1004600025FA04F448EA0308B4FBF2F14FEA184510
:1004700002FB11441FFA87FC45EA044501FB0CF31B
:10048000AB4200FA0EF409D9ED1901F1FF3080F00A
:100490008A80AB4240F2878002393D44EB1A1FFA52
:1004A00088F5B3FBF2F002FB103345EA034500FB8D
:1004B0000CF3AB4207D9ED1900F1FF386FD2AB4214
:1004C0006DD902383D44EB1A40EA01418FE7C1F192
:1004D000200722FA07F88B4005FA01F448EA0303E3
:1004E00020FA07FE4FEA134CFD404EEA040EB5FB1E
:1004F000FCF94FEA1E440CFB19551FFA83F844EA35
:10050000054509FB08F4AC4202FA01F200FA01FACF
:1005100008D9ED1809F1FF3043D2AC4241D9A9F115
:1005200002091D442D1B1FFA8EFEB5FBFCF00CFBCF
:1005300010554EEA054400FB08F8A04507D9E41819
:1005400000F1FF3529D2A04527D902381C4440EAE2
:100550000940A4EB0804A0FB02894C45C6464D4661
:1005600015D312D056B1BAEB0E0364EB050404FAAE
:1005700007F7CB401F43CC40376074600021BDE8D3
:10058000F0871846F8E69046E0E6C245EAD2B8EBB6
:10059000020E69EB03050138E4E72846D7E7404639
:1005A00091E78146BEE7014678E702383C4445E7DB
:1005B000084608E7A8F102083D442BE7704700BF52
:1005C00038B50E4A0E4B054618784FF47A73B3FBD4
:1005D000F0F31068B0FBF3F000F088F8044658B967
:1005E0000F2D09D8024629464FF0FF3000F04AF897
:1005F000044B20461D6038BD012038BD0800002096
:10060000000000200400002008B50B4B1A6842F4DB
:1006100000721A601A6842F480621A601A6842F422
:1006200080721A60032000F01BF80020FFF7C8FF5B
:1006300000F06CFC002008BD003C0240034A044B63
:1006400011681B780B441360704700BF98000020AE
:1006500000000020014B1868704700BF9800002080
:10066000074AD36823F4E0631B041B0C43F0BF6309
:10067000000243F4003300F4E0600343D3607047AA
:1006800000ED00E0174B30B5DC68C4F30224C4F180
:100690000703251D042B28BF0423062D4FF0010559
:1006A00005FA03F303F1FF338CBF033C0024194028
:1006B000A14005FA04F4013C2240002842EA01026C
:1006C0004FEA0212AFBF00F1604000F00F00064B8E
:1006D000D2B2A5BF00F56140D2B21A5480F800230F
:1006E00030BD00BF00ED00E014ED00E00138B0F1D6
:1006F000807F0AD2064B074A5860F02182F8231007
:100700000020072298601A6070470120704700BFE0
:1007100010E000E000ED00E0044B1A6804280CBF74
:1007200042F0040222F004021A60704710E000E078
:10073000704708B5FFF7FCFF08BD00002DE9F04148
:100740000D46044610B90120BDE8F081444B1A68FB
:1007500002F00F028A4228D321688F072DD4C807E0
:1007600040D43F4B1A6802F00F02954266D32268CC
:1007700051076CD4130707D53A4A2169936823F4CB
:10078000604343EAC103936000F078F8354B364A82
:100790009B68C3F30313D35CD840344B186000202C
:1007A000FFF70EFF0020BDE8F081CAB21A701B6887
:1007B00003F00F039942C6D1CEE72A4B11F0040F84
:1007C0001EBF9A6842F4E0529A600E0742BF9A68D0
:1007D00042F460429A609A68A06822F0F0020243F4
:1007E0009A60BCE762681F4B012A1DD11B6813F495
:1007F000003FA8D01B4EB36823F003031343B3603C
:10080000FFF728FF41F288380746B368626803F0B3
:100810000C03B3EB820FA4D0FFF71CFFC01B4045B5
:10082000F3D90320BDE8F081911E01291B6802D88D
:1008300013F0007FDDE713F0020FDAE7EAB21A7077
:100840001B6803F00F039D427FF47DAF8FE70549DE
:10085000E0688B6823F4E05303438B608AE700BFB2
:10086000003C024000380240401900080800002007
:10087000014B1868704700BF08000020204908B5E8
:100880008B6803F00C03082B07D00C2B20D01D4ADB
:100890001D48042B18BF104608BD4A684B684968BC
:1008A00013F4800314BF18481648C1F3881118BF09
:1008B000002302F03F02A1FB0001FFF7F9FC104BFF
:1008C0005B68C3F3014301335B00B0FBF3F008BD89
:1008D0004A684B68496813F4800314BF0A48094802
:1008E000C1F3881118BF002302F03F02A1FB0001F1
:1008F000FFF7DEFC024B5B68C3F30273E5E700BF62
:10090000003802400024F40040787D0103682DE99E
:10091000F341DF07044610D423689E0767D4236899
:100920001A0700F1B28023685B0700F1D080A2694A
:10093000002A40F0398100201EE0974B9A6802F0AF
:100940000C02042A10D09A6802F00C02082A02D184
:100950005B685D0208D4904B9A6802F00C020C2A86
:100960000DD15A6850020AD58B4B1B689903D3D519
:100970006368002BD0D1012002B0BDE8F08162682D
:10098000B2F5803F11D11A6842F480321A60FFF745
:1009900061FE814D06462B689A03BDD4FFF75AFECF
:1009A000801B6428F7D90320E6E77B4DB2F5A02F22
:1009B0002B6807D143F480232B602B6843F48033EA
:1009C0002B60E4E723F480332B602B6823F480232F
:1009D0002B60002ADBD1FFF73DFE06462B689B0308
:1009E0009AD5FFF737FE801B6428F7D9DBE76A4BFF
:1009F0009A6812F00C0F10D09A6802F00C02082AC4
:100A000002D15B685F0208D5634A936803F00C0368
:100A10000C2B11D153685E020ED45F4B1A689507F8
:100A200002D5E268012AA6D11A68216922F0F802EB
:100A300042EAC1021A6072E7E268584BB2B1012281
:100A40001A60FFF707FE544D06462B68980707D536
:100A50002B68226923F0F80343EAC2032B605EE7A8
:100A6000FFF7F8FD801B0228EFD99CE71A60FFF71B
:100A7000F1FD494D06462B6899077FF550AFFFF70A
:100A8000E9FD801B0228F6D98DE76269444B7AB1F3
:100A900001221A60FFF7DEFD3F4D06466B6F9F0790
:100AA0003FF541AFFFF7D6FD801B0228F6D97AE764
:100AB0001A60FFF7CFFD384D06466B6F98077FF53C
:100AC00032AFFFF7C7FD801B0228F6D96BE7324B28
:100AD0001A6C12F0805228D101921A6C42F08052A6
:100AE0001A641B6C03F080530193019B01262D4D6A
:100AF0002B68D9051BD5A368274D012B27D12B6F58
:100B000043F001032B67FFF7A5FD234D074641F294
:100B100088382B6F9B0739D5002E3FF408AF1E4A4B
:100B2000136C23F08053136401E70026DFE72B6882
:100B300043F480732B60FFF78DFD07462B68DA05C1
:100B4000D9D4FFF787FDC01B0228F7D92BE7052B67
:100B500004D12B6F43F004032B67D0E72A6F22F0F8
:100B600001022A672A6F22F004022A67002BCAD1E9
:100B7000FFF770FD41F2883807462B6F9807CBD5F9
:100B8000FFF768FDC01B4045F7D90CE7FFF762FD92
:100B9000C01B4045BDD906E700380240000047426F
:100BA000800E474200700040234DAB6803F00C03F9
:100BB000082B3FF4E0AE214E0023022A33602DD1F2
:100BC000FFF748FD07462B68990121D4226AE369A3
:100BD0001343626A43EA8213E26A43EA0263226BC6
:100BE00043EA0273A26A144C5208013A43EA0243F0
:100BF0006B6001233360FFF72DFD054623689A01E2
:100C00003FF599AEFFF726FD401B0228F6D9CAE64C
:100C1000FFF720FDC01B0228D5D9C4E6FFF71AFD57
:100C200004462B689B017FF586AEFFF713FD001B82
:100C30000228F6D9B7E600BF0038024060004742FC
:100C400010B594B00022224B0092196C41F08051F3
:100C500019641B6C1F4903F080530093009B0192A1
:100C60000B6823F4404343F480430B600B680D9200
:100C700003F440430193019B0223079301230A934A
:100C800007A810230B93FFF741FE014600B1FEE7D2
:100C90000F23039004900590069002A80293FFF79B
:100CA0004DFD044600B1FEE7FFF7E2FD4FF47A7315
:100CB000B0FBF3F0FFF71AFD0420FFF72DFD2246ED
:100CC00021464FF0FF30FFF7DDFC14B010BD00BF30
:100CD0000038024000700040564A136C43F4004351
:100CE0001364136B43F004031363534B196821F42B
:100CF00040111960196821F440011960196821F048
:100D000040711960196841F400111960196841F4C3
:100D100000011960196841F000711960596821F4E7
:100D200080615960596821F400615960596821F463
:100D300080515960996841F040719960996841F417
:100D400040019960996841F440119960D96821F493
:100D50004011D960D96821F44001D960D96821F0E7
:100D60004071D960196941F480511961196941F4E0
:100D700000611961596A21F47F6121F00F01596204
:100D8000596A090C09045962596A090D0905596221
:100D9000596A41F4C0615962596A41F4C0415962CB
:100DA000596A41F4C0215962136B43F00103136384
:100DB000224B1A6822F040421A601A6842F0004240
:100DC0001A605A6822F400425A609A6842F040421F
:100DD0009A60DA6822F04042DA60DA6842F08042D3
:100DE000DA601A6942F400421A615A6A00225A62B1
:100DF000596A41F0C0415962A3F5E23350211A60AB
:100E00005A601A6822F002021A601A6842F001025F
:100E10001A601A6842F400621A601A6822F08002AE
:100E20001A60074A82F833131A6842F040021A60C7
:100E3000704700BF00380240000802400000024036
:100E400000E100E02DE9F04790B0FFF7DDFB002462
:100E5000FFF7F6FE2A4B01941A6B2A4DDFF8A89093
:100E600042F001021A631A6B02F001020192019A28
:100E700002941A6B42F004021A631B6B03F0040322
:100E80000293029BFFF728FFA846AB68D907FCD561
:100E9000EF68BFB23A46494603A800F003F9D8F814
:100EA0000830DA07FBD5D8F80C60B6B232464946AE
:100EB00003A800F0F7F8AB68DB07FCD532464946DB
:100EC00003A8D5F80CA000F0EDF8D8F80830980782
:100ED000FBD52744C8F80C70AB689907FCD52644AD
:100EE000EE60D8F808309A07FBD514FA8AF3C8F8F0
:100EF0000C30AB689B07FCD5EC6004F57A74C4E752
:100F000000380240003C00401419000813B5224B81
:100F1000002400945A6C42F480425A645A6C02F4E1
:100F200080420092009A01941A6C42F080521A6436
:100F30001B6C03F0805301930320019BFFF790FB90
:100F4000224621466FF00B00FFF79CFB224621460C
:100F50006FF00A00FFF796FB224621466FF009006A
:100F6000FFF790FB224621466FF00400FFF78AFB53
:100F7000224621466FF00300FFF784FB22462146FC
:100F80006FF00100FFF77EFB224621464FF0FF3055
:100F9000FFF778FB02B010BD003802407047FEE753
:100FA000FEE7FEE7FEE770477047704708B5FFF7BA
:100FB00045FBBDE80840FFF7BCBB00000F49D1F876
:100FC000883043F47003C1F888300D4B1A68002054
:100FD00042F001021A6098601A6822F0847222F4CA
:100FE00080321A60074A5A601A6822F480221A6016
:100FF000D8604FF000638B60704700BF00ED00E0E9
:101000000038024010300024DFF834D0002103E023
:101010000C4B5B58435004310B480C4B42189A421E
:10102000F6D30B4A02E0002342F8043B094B9A42F4
:10103000F9D3FFF7C3FF00F011F8FFF703FF704784
:101040000000022094190008000000207000002019
:1010500070000020A0000020FEE7000070B50D4EDB
:101060000D4CA41BA4100025A54209D10B4E0C4C1D
:1010700000F044FCA41BA4100025A54205D170BDBE
:1010800056F8253098470135EEE756F82530984751
:101090000135F2E78C1900088C1900088C1900083A
:1010A000901900080EB400B59CB04FF402711DAB4E
:1010B000ADF81410029006906FF000410A480491B8
:1010C00007914FF6FF7153F8042BADF81610006826
:1010D000019302A900F066F8029B00221A701CB06E
:1010E0005DF804EB03B070470C0000202DE9F047D9
:1010F0008E689E4282460C469146984635D88A892B
:1011000012F4906F31D0256809696F1A656902235E
:1011100005EB450595FBF3F508F101033B449D42C2
:1011200038BF1D46530531D5294600F039FB064628
:1011300050B90C23CAF80030A38943F04003A381BF
:101140004FF0FF30BDE8F0873A46216900F0B4FA6D
:10115000A38923F4906343F08003A3812661656132
:101160003E44ED1B2660A5604646464528BF4646E0
:1011700032464946206800F0AAFAA3689B1BA36088
:1011800023681E4426600020BDE8F0872A4600F050
:1011900065FB06460028E1D12169504600F0B2FA0D
:1011A000C7E700002DE9F04F9DB0804603938B897F
:1011B0001C060D4616460FD50B696BB9402100F091
:1011C000EFFA2860286128B90C23C8F800304FF0E6
:1011D000FF30C5E040236B610023099320238DF885
:1011E000293030238DF82A304FF0010B37463C462A
:1011F00014F8013B002B3CD1B7EB060A0BD0534649
:10120000324629464046FFF771FF013000F0A380C7
:10121000099B534409933B78002B00F09C800023EA
:101220004FF0FF3204930793059206938DF85330E5
:101230001A93052221785048FEF7EAFF671C049BA9
:10124000D8B9D90644BF20228DF853201A0744BFCD
:101250002B228DF8532022782A2A16D0079A0021B3
:101260000A20274601343B78303B092B51D9C9B1BC
:1012700011E0252BC0D02746B9E73F4A801A0BFA68
:1012800000F0184304903C46D3E7039A111D1268FE
:101290000391002A01DB079204E0524243F002036B
:1012A000079204933B782E2B0ED17B782A2B07F1E3
:1012B000010132D1039B1A1D1B680392002BB8BF9A
:1012C0004FF0FF33023705932C4C39780322204628
:1012D000FEF79EFF38B14023001B03FA00F0049B89
:1012E000034304930137397825488DF828100622E6
:1012F0007E1CFEF78DFF002835D0224BFBB9039BE7
:10130000073323F0070308330393099B4B440993E6
:101310006CE700FB02320121A3E700230593184686
:101320000A240F4601313A78303A092A03D9002BB2
:10133000CAD00590C8E704FB00200123F1E703AB06
:1013400000932A46104B04A94046AFF30080B0F149
:10135000FF3F8146D9D1AB895B063FF538AF09988D
:101360001DB0BDE8F08F03AB00932A46064B04A9DD
:10137000404600F081F8EAE75019000856190008C5
:101380005A19000800000000ED1000082DE9F04790
:1013900091461F468A680B69DDF820809342B8BFEA
:1013A0001346C9F8003091F8432006460C4612B1A6
:1013B0000133C9F800302368990642BFD9F80030DC
:1013C0000233C9F80030256815F0060507D104F18D
:1013D000190AE368D9F800209B1A9D4229DB94F88A
:1013E00043302268003318BF012392062ED404F143
:1013F000430239463046C047013021D02368E568B2
:10140000D9F8002003F00603042B08BFAD1AA36827
:1014100022690CBF25EAE57500259342C4BF9B1ADB
:10142000ED184FF000091A344D451BD10020BDE8DE
:10143000F0870123524639463046C047013003D178
:101440004FF0FF30BDE8F0870135C2E7E1185A1CC4
:10145000302081F84300224494F8451082F843106C
:101460000233C4E70123224639463046C0470130E3
:10147000E6D009F10109D7E72DE9F04317460A7EC6
:1014800085B06E2A984606460C460C9B01F1430E29
:1014900000F0BC801AD8632A2ED00AD8002A00F0A7
:1014A000C880582A00F08A8004F1420584F842205E
:1014B0002AE0642A01D0692AF6D121681A6811F05D
:1014C000800F23D0111D1960136827E0732A00F0E4
:1014D000B48008D86F2A2AD0702AE5D10A6842F071
:1014E00020020A6003E0752A21D0782ADCD1782214
:1014F00084F845206E4964E01A6801F14205111D27
:101500001960136884F842300123A3E011F0400F02
:1015100002F104011960D7D0B2F90030002B03DAD0
:101520002D225B4284F8432062490A2217E020689A
:10153000196810F0800F03D0081D18600B6806E0D2
:1015400010F0400F01F104001860F7D00B885949E2
:101550006F2A14BF0A220822002084F8430065681D
:10156000A560002DC0F29C80206820F0040020605F
:10157000002B3FD1002D40F095807546082A0BD1F5
:101580002368DA0708D5236962689A42DEBF3023F0
:1015900005F8013C05F1FF35AEEB05032361CDF8FD
:1015A00000803B4603AA21463046FFF7EFFE01309C
:1015B00055D14FF0FF3005B0BDE8F08381F84520EC
:1015C0003C492268186812F0800F00F104051D6084
:1015D00001D0036802E05506FBD50388D00744BF5D
:1015E00042F0200222601BB9226822F02002226011
:1015F0001022B1E77546B3FBF2F002FB1033CB5C6F
:1016000005F8013D03460028F5D1B7E708681A68D8
:10161000496910F0800F04D0101D1860136819601C
:1016200007E010F0400F02F1040018601368F6D0D4
:101630001980002323617546B1E71A68111D1960EE
:101640001568626800212846FEF7E2FD08B1401BDC
:10165000606063682361002384F843309FE7236957
:101660002A4639463046C0470130A2D023689B073E
:1016700007D5002504F11909E368039A9B1A9D42D6
:1016800005DBE068039B9842B8BF184693E7012347
:101690004A4639463046C04701308AD00135EBE72B
:1016A000002BA7D10B7884F8423004F1420565E79E
:1016B000721900086119000810B5431E0A449142CE
:1016C00000D110BD11F8014B03F8014FF7E7884234
:1016D00010B501EB020303D8421E99420CD110BD94
:1016E0009842F9D28118D21AD34200D110BD13F812
:1016F000014D01F8014DF7E711F8014B02F8014FD8
:10170000EBE7000038B50546002945D051F8043C08
:101710000C1F002BB8BFE41800F0D6F81F4A13685E
:10172000104633B9636014602846BDE8384000F0C5
:10173000CCB8A3420CD921686218934204BF1A683E
:101740005B68636004BF521822600460ECE71346D4
:101750005A680AB1A242FAD919685818A0420BD1A6
:1017600020680144581882421960DDD1106852681F
:101770005A6001441960D7E702D90C232B60D3E7E4
:10178000206821188A4204BF11685268626004BF51
:10179000091821605C60C7E738BD00BF8C000020DD
:1017A00070B5CD1C25F0030508350C2D38BF0C2570
:1017B000002D064601DBA94203D90C23336000202B
:1017C00070BD00F081F8234A1468214691B9224C7B
:1017D00023681BB9304600F067F820602946304680
:1017E00000F062F8431C26D10C233360304600F031
:1017F0006CF8E4E70B685B1B1AD40B2B0FD90B605A
:10180000CD50CC18304600F060F804F10B00231DD9
:1018100020F00700C31A1BD05A42E25070BD8C4220
:101820000DBF63684B686360136018BF0C46E9E73F
:101830000C464968CAE7C41C24F00304A04205D042
:10184000211A304600F030F80130CDD02560D9E7BC
:1018500070BD00BF8C00002090000020F8B5074646
:1018600014460E4621B91146BDE8F840FFF798BF6F
:1018700022B9FFF747FF25462846F8BD00F026F8B5
:1018800084420FD921463846FFF78AFF05460028D3
:10189000F2D031462246FFF70FFF31463846FFF7B8
:1018A00031FFE9E73546E7E738B5064C0023054642
:1018B0000846236000F014F8431C02D1236803B1EA
:1018C0002B6038BD9C0000207047704751F8040C15
:1018D0000028A0F10400BCBF0B58C01870470000DE
:1018E000044B1968024609B9034919601868024493
:1018F0001A60704794000020A0000020F8B500BFD7
:10190000F8BC08BC9E467047F8B500BFF8BC08BCE0
:041910009E46704738
:10191400756172745F7472616E736D6974202020D6
:1019240020256920202020202020200D0A2020208E
:101934002020202020202020202020000000000043
:10194400000000000102030406070809232D302BC0
:101954002000686C4C0065666745464700303132AC
:101964003334353637383941424344454600303103
:101974003233343536373839616263646566000062
:081984005CE9FF7F0100000097
:04198C00F501000859
:04199000D101000879
:1019940001000000100000000024F40010000020EA
:1019A4000000000000000000000000000000000033
:1019B4000000000000000000000000000000000023
:1019C4000000000000000000000000000000000013
:1019D4000000000000000000000000000000000003
:1019E40000000000000000000000000000000000F3
:1019F40000000000000000000000000000000000E3
:0400000508001009D6
:00000001FF
